S02900004C61625F325F335F626C696E6B696E675F7669615F696E74657272757074696F6E2E73726563EB
S11300000C9472000C9484000C9484000C9484006E
S11300100C9484000C9484000C9484000C9484004C
S11300200C9484000C9484000C9484000C9484003C
S11300300C9484000C9484000C9484000C9484002C
S11300400C9484000C9484000C9484000C9484001C
S11300500C9484000C9484000C9484000C9484000C
S11300600C9484000C9484000C9484000C948400FC
S11300700C9484000C9484000C9484000C948400EC
S11300800C9484000C9484000C9484000C948400DC
S11300900C9484000C9484000C9484000C948400CC
S11300A00C9484000C9484000C9484000C948400BC
S11300B00C9484000C9484000C9484000C949C0094
S11300C00C9484000C9484000C9484000C9484009C
S11300D00C9484000C9484000C9484000C9484008C
S11300E00C94840011241FBECFEFD1E2DEBFCDBF3C
S11300F022E0A0E0B2E001C01D92A330B207E1F714
S11301000E94D2000C94DD000C940000F89410922C
S113011020018CE08093210184E39CE090932901E9
S11301208093280182E080937300789408959093DB
S113013001028093000208951F920F920FB60F924E
S113014011242F933F934F935F936F937F938F93D8
S11301509F93AF93BF93EF93FF93E0910002F091CD
S11301600102309709F00995FF91EF91BF91AF918A
S11301709F918F917F916F915F914F913F912F91BB
S11301800F900FBE0F901F901895809102028F5F01
S113019080930202853029F486B1809588B9109243
S11301A002020895F8948FEF87B90E94860085ECC7
S11101B090E00E9497007894FFCFF894FFCF60
S9030000FC
