S02700004C61625F325F355F68656172745F726174655F6D6F6E69746F725F67616D652E73726563EB
S11300000C9472000C9484000C9484000C9484006E
S11300100C9484000C9484000C9484000C9484004C
S11300200C94F2000C9484000C9484000C948400CE
S11300300C9484000C9484000C9484000C9484002C
S11300400C9484000C9484000C9484000C9484001C
S11300500C9484000C9484000C9484000C9484000C
S11300600C9484000C9484000C9484000C948400FC
S11300700C9484000C9484000C9484000C948400EC
S11300800C9484000C9484000C9484000C948400DC
S11300900C9484000C9484000C9484000C948400CC
S11300A00C9484000C9484000C9484000C948400BC
S11300B00C9484000C9484000C9484000C949C0094
S11300C00C9484000C9484000C9484000C9484009C
S11300D00C9484000C9484000C9484000C9484008C
S11300E00C94840011241FBECFEFD1E2DEBFCDBF3C
S11300F022E0A0E0B2E001C01D92A430B207E1F713
S11301000E9403010C9414010C940000F8941092C2
S113011020018CE08093210184E39CE090932901E9
S11301208093280182E080937300789408959093DB
S113013003028093020208951F920F920FB60F924A
S113014011242F933F934F935F936F937F938F93D8
S11301509F93AF93BF93EF93FF93E0910202F091CB
S11301600302309709F00995FF91EF91BF91AF9188
S11301709F918F917F916F915F914F913F912F91BB
S11301800F900FBE0F901F9018958091010283303D
S113019019F580910002833089F028F4813041F010
S11301A0823049F014C0843061F0853069F00FC0AA
S11301B081E088B90DC083E088B90AC087E088B9B6
S11301C007C08FE088B904C08FE188B901C018B8AE
S11301D01092010210920002809101028F5F8093BD
S11301E0010208951F920F920FB60F9211248F935C
S11301F0809100028F5F809300028F910F900FBE59
S11302000F901F901895F8948FEF87B91DB880E868
S113021080936A008DBB8CBB0E94860085EC90E0C5
S10F02200E9497007894FFCFF894FFCF61
S9030000FC
