S01700004C61625F315F345F6B6579626172642E737265639A
S11300000C9472000C947C000C947C000C947C0086
S11300100C947C000C947C000C947C000C947C006C
S11300200C947C000C947C000C947C000C947C005C
S11300300C947C000C947C000C947C000C947C004C
S11300400C947C000C947C000C947C000C947C003C
S11300500C947C000C947C000C947C000C947C002C
S11300600C947C000C947C000C947C000C947C001C
S11300700C947C000C947C000C947C000C947C000C
S11300800C947C000C947C000C947C000C947C00FC
S11300900C947C000C947C000C947C000C947C00EC
S11300A00C947C000C947C000C947C000C947C00DC
S11300B00C947C000C947C000C947C000C947C00CC
S11300C00C947C000C947C000C947C000C947C00BC
S11300D00C947C000C947C000C947C000C947C00AC
S11300E00C947C0011241FBECFEFD1E2DEBFCDBF44
S11300F00E947E000C9496000C9400008FE087B957
S11301008FEF81B990E021E030E00DC028B9000004
S113011000000000000086B1807F11F086B182B932
S1130120220F331F9F5F943088F3ECCFF894FFCFF6
S9030000FC
