:100000000C9472000C947C000C947C000C947C008A
:100010000C947C000C947C000C947C000C947C0070
:100020000C947C000C947C000C947C000C947C0060
:100030000C947C000C947C000C947C000C947C0050
:100040000C947C000C947C000C947C000C947C0040
:100050000C947C000C947C000C947C000C947C0030
:100060000C947C000C947C000C947C000C947C0020
:100070000C947C000C947C000C947C000C947C0010
:100080000C947C000C947C000C947C000C947C0000
:100090000C947C000C947C000C947C000C947C00F0
:1000A0000C947C000C947C000C947C000C947C00E0
:1000B0000C947C000C947C000C947C000C947C00D0
:1000C0000C947C000C947C000C947C000C947C00C0
:1000D0000C947C000C947C000C947C000C947C00B0
:1000E0000C947C0011241FBECFEFD1E2DEBFCDBF48
:1000F0000E949E000C94C1000C940000CF93DF93EB
:1001000000D0CDB7DEB740E050E010C01A821982AF
:1001100006C029813A812F5F3F4F3A832983298185
:100120003A812C3B3140ACF34F5F5F4F4817590782
:100130006CF30F900F90DF91CF9108958FEF87B9F7
:10014000C1E0D0E000E010E009C0C8B984E690E06A
:100150000E947E00CC0FDD1F0F5F1F4F073011057F
:10016000A4F300E010E009C0C8B984E690E00E9462
:100170007E00D595C7950F5F1F4F07301105A4F37B
:06018000E1CFF894FFCF6F
:00000001FF
