:100000000C9472000C9487000C9487000C94870069
:100010000C9487000C9487000C9487000C94870044
:100020000C9487000C9487000C9487000C94890032
:100030000C9487000C9487000C9487000C94870024
:100040000C9487000C9487000C9487000C94870014
:100050000C9487000C9487000C9487000C94870004
:100060000C9487000C9487000C9487000C948700F4
:100070000C9487000C9487000C9487000C948700E4
:100080000C9487000C9487000C9487000C948700D4
:100090000C9487000C9487000C9487000C948700C4
:1000A0000C9487000C9487000C9487000C948700B4
:1000B0000C9487000C9487000C9487000C948700A4
:1000C0000C9487000C9487000C9487000C94870094
:1000D0000C9487000C9487000C9487000C94870084
:1000E0000C94870011241FBECFEFD1E2DEBFCDBF3D
:1000F00012E0A0E0B2E0E2E9F1E002C005900D926A
:10010000A230B107D9F70E94B5000C94C7000C9437
:1001100000001F920F920FB60F9211248F939F939E
:1001200090E015C08091000280930801000000005B
:100130000000000080910601807F19F08091060187
:1001400085B980910002880F809300029F5F9430F0
:1001500048F381E08093000284E08BBB9F918F91F4
:100160000F900FBE0F901F9018958FEF84B98FE0FE
:1001700080930701F89484E08093680090EF909357
:100180006D008BBB78948FE080930801FCCFF894CE
:02019000FFCF9F
:0201920001006A
:00000001FF
