S02600004C61625F325F345F66616E7461737469635F706572696F6469635F696E742E7372656357
S11300000C9472000C948F000C948F000C948F004D
S11300100C948F000C948F000C948F000C948F0020
S11300200C948F000C948F000C948F000C948F0010
S11300300C948F000C948F000C948F000C948F0000
S11300400C948F000C948F000C948F000C948F00F0
S11300500C948F000C948F000C948F000C948F00E0
S11300600C948F000C948F000C948F000C948F00D0
S11300700C948F000C948F000C948F000C948F00C0
S11300800C948F000C948F000C948F000C948F00B0
S11300900C948F000C948F000C948F000C948F00A0
S11300A00C948F000C948F000C948F000C948F0090
S11300B00C948F000C948F000C948F000C94A70068
S11300C00C948F000C948F000C948F000C948F0070
S11300D00C948F000C948F000C948F000C948F0060
S11300E00C948F0011241FBECFEFD1E2DEBFCDBF31
S11300F012E0A0E0B2E0EAE0F2E002C005900D9266
S1130100A230B107D9F722E0A2E0B2E001C01D920B
S1130110A530B207E1F70E94F8000C9403010C9497
S11301200000F894109220018CE08093210184E374
S11301309CE0909329018093280182E080937300CE
S113014078940895909304028093030208951F9273
S11301500F920FB60F9211242F933F934F935F93F7
S11301606F937F938F939F93AF93BF93EF93FF937B
S1130170E0910302F0910402309709F00995FF9190
S1130180EF91BF91AF919F918F917F916F915F910B
S11301904F913F912F910F900FBE0F901F90189584
S11301A08091000288B980910202873070F4209116
S11301B0000230910102220F331F30930102209379
S11301C000028F5F8093020208958E3070F42091B4
S11301D00002309101023595279530930102209356
S11301E000028F5F80930202089510920202089524
S11301F0F8948FEF87B90E94910080ED90E00E94FF
S10D0200A2007894FFCFF894FFCF1A
S105020A0100ED
S9030000FC
